:100000000C943E000C945B000C945B000C945B0021
:100010000C945B000C945B000C945B000C945B00F4
:100020000C945B000C945B000C945B000C945B00E4
:100030000C945B000C9401040C945B000C945B002A
:100040000C945B000C943B040C945B000C945B00E0
:100050000C945B000C945B000C945B000C945B00B4
:100060000C945B000C945B000C945B000C945B00A4
:100070000C945B000C945B000C945B0011241FBE7D
:10008000CFEFD8E0DEBFCDBF11E0A0E0B1E0E4EB00
:10009000F8E002C005900D92AA30B107D9F721E02F
:1000A000AAE0B1E001C01D92AE31B207E1F70E94B3
:1000B0007B000C9458040C9400002223A9F04111F9
:1000C00007C0E82FF0E0EE5FFE4F808182B908950F
:1000D000E62FF0E0E050FF4F80E8489FA001112498
:1000E0008081482B42B9089580E8489FA0011124DF
:1000F0004F6342B908958FEF81B91AB88FE184B97F
:100100008CE787BD83E084BD8BE085BD94E095BB23
:1001100090936E002CE730E03093890020938800A4
:10012000109280008093810082E086BB80936F00F4
:10013000789410921D01F0E7EEE35CE041E061E0AD
:1001400070E08091170190911801892B09F415B87E
:1001500039B129B180910F0190911001892B09F0DB
:10016000F8BD80910D0190910E01892B09F0E8BD39
:1001700080910B0190910C01892B09F058BD809161
:10018000070190910801892B41F04C9903C04093DD
:100190000A0103C04C9910920A014B9B2DC04B9948
:1001A000FECF1092100110920F01109216011092C2
:1001B0001501109214011092130110921201109265
:1001C000110110920E0110920D0110920C0110926B
:1001D0000B0110921A011092190110921C01109239
:1001E0001B01709308016093070115B84093060145
:1001F00010921801109217014A9BA3CF4A99FECF83
:100200008091070190910801892B09F49ACF21FF71
:1002100002C030FD0DC015B8109208011092070100
:1002200070931801609317017093100160930F0190
:100230004093060186CF80910F0190911001892B88
:1002400009F473C080911B0190911C010196909359
:100250001C0180931B0180911B0190911C01883E21
:10026000934021F410921C0110921B0115B880914B
:100270001B0190911C018B3F910518F481E085B919
:1002800032C080911B0190911C018B3F910550F071
:1002900080911B0190911C01853F914018F482E0F0
:1002A00085B921C080911B0190911C01853F91402F
:1002B00050F080911B0190911C018F3E924018F4E8
:1002C00084E085B910C080911B0190911C018F3E84
:1002D000924048F080911B0190911C01893E93400F
:1002E00010F488E085B98091190190911A01883B3A
:1002F0009B40D8F48091190190911A010196909336
:100300001A01809319018091190190911A01883B7B
:100310009B4059F415B81092100110920F0181E022
:1003200090E09093160180931501809115019091B2
:100330001601892B09F444C080911B0190911C0186
:10034000019690931C0180931B0115B880911B01AD
:1003500090911C01883E934021F410921C01109250
:100360001B0180911B0190911C01893E934010F468
:100370008FE085B98091190190911A0180379741DA
:10038000F8F48091190190911A01019690931A0145
:10039000809319018091190190911A01803797413A
:1003A00079F415B8109216011092150110921A01E5
:1003B0001092190181E090E090930E0180930D015D
:1003C000089580910D0190910E01892B09F473C05D
:1003D00080911B0190911C01019690931C018093C8
:1003E0001B0180911B0190911C01883E934021F4D8
:1003F00010921C0110921B0115B880911B01909165
:100400001C018B3F910518F488E085B932C08091BA
:100410001B0190911C018B3F910550F080911B01B5
:1004200090911C01853F914018F484E085B921C06A
:1004300080911B0190911C01853F914050F080916B
:100440001B0190911C018F3E924018F482E085B907
:1004500010C080911B0190911C018F3E924048F08A
:1004600080911B0190911C01893E934010F481E022
:1004700085B98091190190911A01883B9B40D8F46D
:100480008091190190911A01019690931A0180931D
:1004900019018091190190911A01883B9B4059F4F0
:1004A00015B810920E0110920D0181E090E090932A
:1004B0001401809313018091130190911401892BF1
:1004C00009F471C080911B0190911C0101969093D9
:1004D0001C0180931B0115B880911B0190911C0198
:1004E000883E934021F410921C0110921B018091D0
:1004F0001B0190911C01853F914018F48FE085B954
:100500000FC080911B0190911C01853F914040F0EC
:1005100080911B0190911C01893E934008F415B80D
:100520008091190190911A0180379741E0F58091EF
:10053000190190911A01019690931A018093190163
:100540008091190190911A018037974161F515B892
:1005500080910A01811118C01092140110921301A8
:1005600080910A018F5F80930A0110921A01109204
:10057000190181E090E090930E0180930D0110929B
:100580000C0110920B01089515B8109214011092ED
:10059000130110921A011092190181E090E09093DA
:1005A0000C0180930B01089580910B0190910C0137
:1005B000892B09F4B7C080911B0190911C01019611
:1005C00090931C0180931B0180911B0190911C0151
:1005D000883E934021F410921C0110921B0115B823
:1005E00080911B0190911C018E37910518F488E0D1
:1005F00085B976C080911B0190911C018E379105C1
:1006000050F080911B0190911C018B3F910518F4D3
:1006100084E085B965C080911B0190911C018B3FDE
:10062000910550F080911B0190911C0188379140F9
:1006300018F482E085B954C080911B0190911C018F
:100640008837914050F080911B0190911C01843FAC
:10065000914018F481E085B943C080911B019091CD
:100660001C01853F914050F080911B0190911C012D
:100670008237924018F481E085B932C080911B0125
:1006800090911C018237924050F080911B01909113
:100690001C018F3E924018F482E085B921C0809100
:1006A0001B0190911C018F3E924050F080911B01E4
:1006B00090911C018C36934018F484E085B910C0E9
:1006C00080911B0190911C018C36934048F08091E1
:1006D0001B0190911C01893E934010F488E085B97C
:1006E0008091190190911A01883B9B40D8F4809128
:1006F000190190911A01019690931A0180931901A2
:100700008091190190911A01883B9B4059F415B8CA
:1007100010920C0110920B0181E090E09093120175
:10072000809311018091110190911201892B09F49C
:100730005AC080911B0190911C01019690931C015D
:1007400080931B0115B880911B0190911C01843F7F
:10075000914021F410921C0110921B0180911B0109
:1007600090911C018B3F910510F415B810C0809139
:100770001B0190911C018B3F910548F080911B015A
:1007800090911C01853F914010F48FE085B98091D4
:10079000190190911A018037974128F5809119012C
:1007A00090911A01019690931A01809319018091FA
:1007B000190190911A0180379741A9F415B8109248
:1007C00012011092110110921A011092190181E088
:1007D00090E0909308018093070110920601109217
:1007E0001801109217010895809117019091180136
:1007F000892B31F00E941B010E94E1010E94D4026A
:1008000008951F920F920FB60F9211242F933F93CA
:100810004F935F936F937F938F939F93AF93BF9308
:10082000EF93FF9389B199B169B12091060140918D
:100830001D0162956170969591708170880F890F86
:100840000E945D0090911D0181E0891B80931D0134
:100850000E94F403FF91EF91BF91AF919F918F910F
:100860007F916F915F914F913F912F910F900FBEAC
:100870000F901F9018951F920F920FB60F92112490
:100880008F939F938091170190911801892B11F4F8
:1008900015B807C08091170190911801019709F4CC
:1008A0002C9A9F918F910F900FBE0F901F901895CB
:0408B000F894FFCFEA
:0A08B40054790840017901010000A9
:04000003000007E80A
:00000001FF
